{
  "contractName": "TokenTransaction",
  "abi": [
    {
      "constant": false,
      "inputs": [
        {
          "name": "_username",
          "type": "address"
        },
        {
          "name": "amount",
          "type": "uint256"
        },
        {
          "name": "flag",
          "type": "bool"
        }
      ],
      "name": "setBalance",
      "outputs": [
        {
          "name": "",
          "type": "bytes32"
        }
      ],
      "payable": false,
      "stateMutability": "nonpayable",
      "type": "function"
    },
    {
      "constant": true,
      "inputs": [
        {
          "name": "",
          "type": "address"
        },
        {
          "name": "initialAmount",
          "type": "uint256"
        }
      ],
      "name": "Names",
      "outputs": [
        {
          "name": "",
          "type": "bytes32"
        }
      ],
      "payable": false,
      "stateMutability": "view",
      "type": "function"
    },
    {
      "constant": false,
      "inputs": [
        {
          "name": "amount",
          "type": "uint256"
        },
        {
          "name": "userName",
          "type": "bytes32"
        }
      ],
      "name": "transferEnergy",
      "outputs": [
        {
          "name": "",
          "type": "bool"
        }
      ],
      "payable": true,
      "stateMutability": "payable",
      "type": "function"
    },
    {
      "constant": false,
      "inputs": [
        {
          "name": "uAddress",
          "type": "address"
        },
        {
          "name": "userName",
          "type": "bytes32"
        }
      ],
      "name": "register",
      "outputs": [
        {
          "name": "success",
          "type": "bool"
        }
      ],
      "payable": false,
      "stateMutability": "nonpayable",
      "type": "function"
    },
    {
      "inputs": [
        {
          "name": "username",
          "type": "bytes32"
        }
      ],
      "payable": false,
      "stateMutability": "view",
      "type": "function",
      "constant": true,
      "name": "getAddress",
      "outputs": [
        {
          "name": "",
          "type": "address"
        }
      ]
    },
    {
      "anonymous": false,
      "inputs": [
        {
          "indexed": false,
          "name": "userName",
          "type": "bytes32"
        },
        {
          "indexed": false,
          "name": "_seller",
          "type": "bytes32"
        },
        {
          "indexed": false,
          "name": "amount",
          "type": "uint256"
        },
        {
          "indexed": false,
          "name": "etherAmount",
          "type": "uint256"
        }
      ],
      "name": "isRegistered",
      "type": "function",
      "payable": false,
      "stateMutability": "view",
      "constant": true,
      "outputs": [
        {
          "name": "registered",
          "type": "bool"
        }
      ]
    },
    {
      "anonymous": false,
      "inputs": [
        {
          "indexed": false,
          "name": "_buyer",
          "type": "bytes32"
        },
        {
          "indexed": false,
          "name": "_seller",
          "type": "bytes32"
        },
        {
          "indexed": false,
          "name": "amount",
          "type": "uint256"
        },
        {
          "indexed": false,
          "name": "etherAmount",
          "type": "uint256"
        }
      ],
      "name": "exchange1",
      "type": "function",
      "constant": false,
      "outputs": [
        {
          "name": "",
          "type": "bool"
        }
      ],
      "payable": false,
      "stateMutability": "nonpayable"
    },
    {
      "anonymous": false,
      "inputs": [
        {
          "indexed": false,
          "name": "toEnit",
          "type": "bool"
        },
        {
          "indexed": false,
          "name": "initialAmount",
          "type": "uint256"
        },
        {
          "indexed": false,
          "name": "enitAmount",
          "type": "uint256"
        },
        {
          "indexed": false,
          "name": "etherAmount",
          "type": "uint256"
        }
      ],
      "name": "convertToken",
      "type": "function",
      "constant": true,
      "outputs": [
        {
          "name": "value",
          "type": "uint256"
        }
      ],
      "payable": false,
      "stateMutability": "view"
    },
    {
      "anonymous": false,
      "inputs": [
        {
          "indexed": false,
          "name": "uAddress",
          "type": "address"
        },
        {
          "indexed": false,
          "name": "amount",
          "type": "uint256"
        },
        {
          "indexed": false,
          "name": "value",
          "type": "uint256"
        }
      ],
      "name": "getName",
      "type": "function",
      "constant": true,
      "outputs": [
        {
          "name": "",
          "type": "bytes32"
        }
      ],
      "payable": false,
      "stateMutability": "view"
    },
    {
      "anonymous": false,
      "inputs": [
        {
          "indexed": false,
          "name": "buyer",
          "type": "bytes32"
        },
        {
          "indexed": false,
          "name": "seller",
          "type": "bytes32"
        },
        {
          "name": "amount",
          "type": "uint256"
        }
      ],
      "name": "owner",
      "type": "function",
      "constant": true,
      "outputs": [
        {
          "name": "",
          "type": "address"
        },
        {
          "name": "username",
          "type": "bytes32"
        },
        {
          "name": "enitBalance",
          "type": "uint256"
        },
        {
          "name": "registered",
          "type": "bool"
        }
      ],
      "payable": false,
      "stateMutability": "view"
    },
    {
      "constant": false,
      "inputs": [
        {
          "name": "buyer",
          "type": "bytes32"
        },
        {
          "name": "seller",
          "type": "bytes32"
        },
        {
          "name": "amount",
          "type": "uint256"
        }
      ],
      "name": "transferEnergy1",
      "outputs": [
        {
          "name": "",
          "type": "bool"
        }
      ],
      "payable": false,
      "stateMutability": "nonpayable",
      "type": "function"
    },
    {
      "constant": true,
      "inputs": [
        {
          "name": "username",
          "type": "bytes32"
        },
        {
          "name": "value",
          "type": "uint256"
        },
        {
          "name": "amount",
          "type": "uint256"
        }
      ],
      "name": "getBalance",
      "outputs": [
        {
          "name": "",
          "type": "uint256"
        },
        {
          "name": "username",
          "type": "bytes32"
        },
        {
          "name": "enitBalance",
          "type": "uint256"
        },
        {
          "name": "registered",
          "type": "bool"
        }
      ],
      "payable": false,
      "stateMutability": "view",
      "type": "function"
    },
    {
      "constant": true,
      "inputs": [
        {
          "name": "",
          "type": "bytes32"
        },
        {
          "name": "seller",
          "type": "bytes32"
        },
        {
          "name": "amount",
          "type": "uint256"
        }
      ],
      "name": "Accounts",
      "outputs": [
        {
          "name": "userAddress",
          "type": "address"
        },
        {
          "name": "username",
          "type": "bytes32"
        },
        {
          "name": "enitBalance",
          "type": "uint256"
        },
        {
          "name": "registered",
          "type": "bool"
        }
      ],
      "payable": false,
      "stateMutability": "view",
      "type": "function"
    },
    {
      "inputs": [
        {
          "name": "name",
          "type": "bytes32"
        },
        {
          "name": "value",
          "type": "uint256"
        },
        {
          "name": "amount",
          "type": "uint256"
        }
      ],
      "payable": false,
      "stateMutability": "nonpayable",
      "type": "function",
      "constant": false,
      "name": "remove",
      "outputs": [
        {
          "name": "",
          "type": "bool"
        }
      ]
    },
    {
      "anonymous": false,
      "inputs": [
        {
          "indexed": false,
          "name": "name",
          "type": "bytes32"
        },
        {
          "indexed": false,
          "name": "value",
          "type": "uint256"
        },
        {
          "indexed": false,
          "name": "amount",
          "type": "uint256"
        },
        {
          "indexed": false,
          "name": "etherAmount",
          "type": "uint256"
        }
      ],
      "name": "depositEnits",
      "type": "function",
      "payable": false,
      "stateMutability": "nonpayable",
      "constant": false,
      "outputs": [
        {
          "name": "",
          "type": "bool"
        }
      ]
    },
    {
      "anonymous": false,
      "inputs": [
        {
          "indexed": false,
          "name": "_buyer",
          "type": "bytes32"
        },
        {
          "indexed": false,
          "name": "_seller",
          "type": "bytes32"
        },
        {
          "indexed": false,
          "name": "amount",
          "type": "uint256"
        },
        {
          "indexed": false,
          "name": "etherAmount",
          "type": "uint256"
        }
      ],
      "name": "exchange",
      "type": "constructor",
      "constant": false,
      "outputs": [
        {
          "name": "",
          "type": "bool"
        }
      ],
      "payable": false,
      "stateMutability": "nonpayable"
    },
    {
      "anonymous": false,
      "inputs": [
        {
          "indexed": false,
          "name": "buyer",
          "type": "address"
        },
        {
          "indexed": false,
          "name": "seller",
          "type": "address"
        },
        {
          "indexed": false,
          "name": "enitAmount",
          "type": "uint256"
        },
        {
          "indexed": false,
          "name": "etherAmount",
          "type": "uint256"
        }
      ],
      "name": "Sold",
      "type": "event",
      "payable": false,
      "stateMutability": "nonpayable"
    },
    {
      "anonymous": false,
      "inputs": [
        {
          "indexed": false,
          "name": "buyer",
          "type": "address"
        },
        {
          "indexed": false,
          "name": "seller",
          "type": "address"
        },
        {
          "indexed": false,
          "name": "enitAmount",
          "type": "uint256"
        },
        {
          "indexed": false,
          "name": "etherAmount",
          "type": "uint256"
        }
      ],
      "name": "Brought",
      "type": "event"
    },
    {
      "anonymous": false,
      "inputs": [
        {
          "indexed": false,
          "name": "_from",
          "type": "address"
        },
        {
          "indexed": false,
          "name": "_to",
          "type": "address"
        },
        {
          "indexed": false,
          "name": "value",
          "type": "uint256"
        },
        {
          "indexed": false,
          "name": "etherAmount",
          "type": "uint256"
        }
      ],
      "name": "Transferred",
      "type": "event"
    },
    {
      "anonymous": false,
      "inputs": [
        {
          "indexed": false,
          "name": "sender",
          "type": "address"
        },
        {
          "indexed": false,
          "name": "buyer",
          "type": "uint256"
        },
        {
          "indexed": false,
          "name": "value",
          "type": "uint256"
        }
      ],
      "name": "Deposit",
      "type": "event"
    },
    {
      "anonymous": false,
      "inputs": [
        {
          "indexed": false,
          "name": "buyer",
          "type": "address"
        },
        {
          "indexed": false,
          "name": "otherBuyer",
          "type": "address"
        },
        {
          "indexed": false,
          "name": "amountCost",
          "type": "uint256"
        }
      ],
      "name": "BadAction",
      "type": "event"
    },
    {
      "anonymous": false,
      "inputs": [
        {
          "indexed": false,
          "name": "username",
          "type": "bytes32"
        },
        {
          "indexed": false,
          "name": "userAddress",
          "type": "address"
        },
        {
          "indexed": false,
          "name": "amountCost",
          "type": "uint256"
        }
      ],
      "name": "Registered",
      "type": "event"
    },
    {
      "anonymous": false,
      "inputs": [
        {
          "indexed": false,
          "name": "username",
          "type": "bytes32"
        },
        {
          "indexed": false,
          "name": "userAddress",
          "type": "address"
        }
      ],
      "name": "Registered",
      "type": "event"
    }
  ],
  "bytecode": "0x60606040526000600355610d84600555341561001a57600080fd5b336000806101000a81548173ffffffffffffffffffffffffffffffffffffffff021916908373ffffffffffffffffffffffffffffffffffffffff16021790555033600460006101000a81548173ffffffffffffffffffffffffffffffffffffffff021916908373ffffffffffffffffffffffffffffffffffffffff160217905550610d19806100aa6000396000f3006060604052600436106100db576000357c0100000000000000000000000000000000000000000000000000000000900463ffffffff168063059ef8d7146100e05780631de39af41461012d5780631e42ee6b146101825780631e7a505f146101b257806321f8a7211461021057806327258b221461027757806345154a81146102b65780634d445a6f1461030b5780635fd4b08a1461034d5780638da5cb5b146103a25780638dedbca2146103f75780638e7394611461044c57806398ffbcdd14610487578063a7f437791461050f578063bcf9567814610524575b600080fd5b34156100eb57600080fd5b61012b600480803573ffffffffffffffffffffffffffffffffffffffff169060200190919080359060200190919080351515906020019091905050610554565b005b341561013857600080fd5b610164600480803573ffffffffffffffffffffffffffffffffffffffff169060200190919050506105cb565b60405180826000191660001916815260200191505060405180910390f35b61019860048080359060200190919050506105e3565b604051808215151515815260200191505060405180910390f35b34156101bd57600080fd5b6101f6600480803573ffffffffffffffffffffffffffffffffffffffff169060200190919080356000191690602001909190505061062e565b604051808215151515815260200191505060405180910390f35b341561021b57600080fd5b61023560048080356000191690602001909190505061079d565b604051808273ffffffffffffffffffffffffffffffffffffffff1673ffffffffffffffffffffffffffffffffffffffff16815260200191505060405180910390f35b341561028257600080fd5b61029c6004808035600019169060200190919050506107e5565b604051808215151515815260200191505060405180910390f35b34156102c157600080fd5b6102f16004808035600019169060200190919080356000191690602001909190803590602001909190505061082b565b604051808215151515815260200191505060405180910390f35b341561031657600080fd5b610337600480803515159060200190919080359060200190919050506109bc565b6040518082815260200191505060405180910390f35b341561035857600080fd5b610384600480803573ffffffffffffffffffffffffffffffffffffffff169060200190919050506109e7565b60405180826000191660001916815260200191505060405180910390f35b34156103ad57600080fd5b6103b5610a30565b604051808273ffffffffffffffffffffffffffffffffffffffff1673ffffffffffffffffffffffffffffffffffffffff16815260200191505060405180910390f35b341561040257600080fd5b61043260048080356000191690602001909190803560001916906020019091908035906020019091905050610a56565b604051808215151515815260200191505060405180910390f35b341561045757600080fd5b610471600480803560001916906020019091905050610b4a565b6040518082815260200191505060405180910390f35b341561049257600080fd5b6104ac600480803560001916906020019091905050610b72565b604051808573ffffffffffffffffffffffffffffffffffffffff1673ffffffffffffffffffffffffffffffffffffffff16815260200184600019166000191681526020018381526020018215151515815260200194505050505060405180910390f35b341561051a57600080fd5b610522610bcf565b005b341561052f57600080fd5b610552600480803560001916906020019091908035906020019091905050610c62565b005b600061055f846109e7565b905081156105985782600160008360001916600019168152602001908152602001600020600201600082825401925050819055506105c5565b82600160008360001916600019168152602001908152602001600020600201600082825403925050819055505b50505050565b60026020528060005260406000206000915090505481565b60003373ffffffffffffffffffffffffffffffffffffffff166108fc839081150290604051600060405180830381858888f19350505050151561062557600080fd5b60019050919050565b600080600160008460001916600019168152602001908152602001600020905082600260008673ffffffffffffffffffffffffffffffffffffffff1673ffffffffffffffffffffffffffffffffffffffff1681526020019081526020016000208160001916905550838160000160006101000a81548173ffffffffffffffffffffffffffffffffffffffff021916908373ffffffffffffffffffffffffffffffffffffffff160217905550828160010181600019169055506000816002018190555060018160030160006101000a81548160ff0219169083151502179055506003600081548092919060010191905055507f7d917fcbc9a29a9705ff9936ffa599500e4fd902e4486bae317414fe967b307c83856040518083600019166000191681526020018273ffffffffffffffffffffffffffffffffffffffff1673ffffffffffffffffffffffffffffffffffffffff1681526020019250505060405180910390a1600191505092915050565b600060016000836000191660001916815260200190815260200160002060000160009054906101000a900473ffffffffffffffffffffffffffffffffffffffff169050919050565b600060016000836000191660001916815260200190815260200160002060030160009054906101000a900460ff16156108215760019050610826565b600090505b919050565b60008060008061083a8661079d565b92506108458761079d565b91506108526000866109bc565b90507f16dd16959a056953a63cf14bf427881e762e54f03d86b864efea8238dd3b822f82848784604051808573ffffffffffffffffffffffffffffffffffffffff1673ffffffffffffffffffffffffffffffffffffffff1681526020018473ffffffffffffffffffffffffffffffffffffffff1673ffffffffffffffffffffffffffffffffffffffff16815260200183815260200182815260200194505050505060405180910390a1610906878787610a56565b507f1c666f25da5e0f0004d29c8379bbc578b86f1c02a976db337e1abafb291e09db82848784604051808573ffffffffffffffffffffffffffffffffffffffff1673ffffffffffffffffffffffffffffffffffffffff1681526020018473ffffffffffffffffffffffffffffffffffffffff1673ffffffffffffffffffffffffffffffffffffffff16815260200183815260200182815260200194505050505060405180910390a1600193505050509392505050565b600082156109d057600554820290506109e1565b600554828115156109dd57fe5b0490505b92915050565b6000600260008373ffffffffffffffffffffffffffffffffffffffff1673ffffffffffffffffffffffffffffffffffffffff168152602001908152602001600020549050919050565b600460009054906101000a900473ffffffffffffffffffffffffffffffffffffffff1681565b600081610a6284610b4a565b1015610a715760009050610b43565b610a85610a7d8461079d565b836000610554565b610a8f8483610c62565b7fd1ba4ac2e2a11b5101f6cb4d978f514a155b421e8ec396d2d9abaf0bb02917ee610ab98561079d565b610ac28561079d565b84604051808473ffffffffffffffffffffffffffffffffffffffff1673ffffffffffffffffffffffffffffffffffffffff1681526020018373ffffffffffffffffffffffffffffffffffffffff1673ffffffffffffffffffffffffffffffffffffffff168152602001828152602001935050505060405180910390a1600190505b9392505050565b6000600160008360001916600019168152602001908152602001600020600201549050919050565b60016020528060005260406000206000915090508060000160009054906101000a900473ffffffffffffffffffffffffffffffffffffffff16908060010154908060020154908060030160009054906101000a900460ff16905084565b600460009054906101000a900473ffffffffffffffffffffffffffffffffffffffff1673ffffffffffffffffffffffffffffffffffffffff163373ffffffffffffffffffffffffffffffffffffffff161415610c6057600460009054906101000a900473ffffffffffffffffffffffffffffffffffffffff1673ffffffffffffffffffffffffffffffffffffffff16ff5b565b610c76610c6e8361079d565b826001610554565b7fe1fffcc4923d04b559f4d29a8bfc6cda04eb5b0d3c460751c2402c5c5cc9109c610ca08361079d565b82604051808373ffffffffffffffffffffffffffffffffffffffff1673ffffffffffffffffffffffffffffffffffffffff1681526020018281526020019250505060405180910390a150505600a165627a7a72305820932ed7c1e6d2f4ee3be4629b036fd1594e4a19cdcb6e4a347cce2cf0cce19f2f0029",
  "source": "pragma solidity ^0.4.18;\n\n/* Alright, 4th change in the entire program, this time the database will only have the mappings \n * and the ability to register users onto the database, however, it will not create new contracts\n */\n\n// the workaround plan for parity is that this database will only hold the mappings\n// and nothing else. The functions will be public so that it can only be called at \n// TokenTransaction and nothing else.\ncontract TransactionFactory {\n\n    struct UserAccount {\n        address userAddress;\n        bytes32 username; \n        uint256 enitBalance;\n        bool registered;\n    }\n\n    address owner;\n    mapping (bytes32 => UserAccount) public Accounts; \n    mapping (address => bytes32) public Names; //kind of inefficient but it is what it is\n    // might create a permission mapping to give user some power like sudo\n    int numberOfUsers = 0;\n\n    event Registered(bytes32 username, address userAddress);\n\n    /* Purpose: Setting the owner \n     * Returns: Nothing, just set who is the boss\n    */\n    function TransactionFactory() public {\n        owner = msg.sender;\n    }\n\n    function getBalance(bytes32 username) public constant returns(uint256) { \n        return (Accounts[username].enitBalance);\n    }\n    function setBalance(address _username, uint256 amount, bool flag) public {\n        bytes32 username = getName(_username);\n        if (flag) {\n            Accounts[username].enitBalance += amount;\n        } else { \n            Accounts[username].enitBalance -= amount;\n        }\n    }\n    function getAddress(bytes32 username) public constant returns(address) { \n        return (Accounts[username].userAddress) ; \n    }\n    function getName(address uAddress) public constant returns(bytes32) { \n        return (Names[uAddress]) ; \n    }\n    /* Purpose: creates a new account within the database\n     * Input: unknownAddress, desiredName\n     * Returns: bool\n     */\n    function register(address uAddress, bytes32 userName) public returns(bool success) {\n        var account = Accounts[userName];\n        Names[uAddress] = userName;\n        account.userAddress = uAddress;\n        account.username = userName;\n        account.enitBalance = 0;\n        account.registered = true;\n        numberOfUsers++;\n        Registered(userName, uAddress);\n        return true; \n    }\n    /* Purpose: checks if user is registered\n     * Input: username \n     * returns: bool\n     */ \n    function isRegistered(bytes32 userName) public constant returns(bool registered) {\n        if (Accounts[userName].registered) {\n            return true; \n        } else {\n            return false;\n        }\n    }\n}\n\ncontract TokenTransaction is TransactionFactory {\n\n    address public owner;\n    // Log the transfer/action to blockchain \n    event Sold(address buyer, address seller, uint256 enitAmount, uint256 etherAmount);\n    event Brought(address buyer, address seller, uint256 enitAmount, uint256 etherAmount);\n    event Transferred(address _from, address _to, uint256 value);\n    event Deposit(address sender, uint256 buyer);\n    event BadAction(address buyer, address otherBuyer, uint256 amountCost);\n    uint256 ratioEtherToEnits = 3460;\n\n    /* Purpose: creates the instance \n     * Input: None \n     * Returns: None\n     */\n    function TokenTransaction() TransactionFactory() public {\n        owner = msg.sender;\n    }\n\n    /* Purpose: converts depending on boolean:\n                False = Enits to Ethers \n                True = Ethers to Enits \n     * Input: boolean, uint256\n     * Returns: None\n     */\n    function convertToken(bool toEnit, uint256 initialAmount) public constant returns(uint256 value){\n        if (toEnit) {\n            // Amount * 3460\n            return (initialAmount * ratioEtherToEnits);\n        } else {\n            return (initialAmount / ratioEtherToEnits);\n        }\n    }\n    /* Purpose: deposit money\n     * Input: uint256\n     * returns: bool\n     */\n    // might have an error here \n    function depositEnits(bytes32 name, uint256 value) public {\n        setBalance(getAddress(name), value, true);\n        Deposit(getAddress(name), value);\n    }\n    /* Purpose: transfers ether to seller and enit to buyer\n     * Input: string_seller, uint256_amount \n     * Returns: bool\n     */\n    function transferEnergy(uint256 amount) payable public returns(bool) {\n        (msg.sender).transfer(amount);\n        return true; \n    }\n\n    /* Purpose: exchange money or a handshake here \n                buyer wants to buy energy from seller\n     * Input: seller, buyer, amount \n     * Returns: bool\n     */\n    // function exchange(bytes32 _buyer, bytes32 _seller, uint amount) public returns(bool) {\n    //     var seller = getAddress(_seller);\n    //     var buyer = getAddress(_buyer);\n    //     uint256 currentCost = convertToken(false, amount);  \n    //     if (getBalance(_seller) < amount) { \n    //         return false ;\n    //     }      \n    //     if (buyer.balance < currentCost) { \n    //         return false ;\n    //     }\n    //     if (msg.sender != buyer) { \n    //         return false;\n    //     }\n\n\n    //     transferEnergy(currentCost, {from: buyer, to: seller}); \n    //     Brought(buyer, seller, amount, currentCost);\n    //     Transferred(buyer, seller, currentCost);\n    //     return true;\n    // }\n\n    function exchange1(bytes32 _buyer, bytes32 _seller, uint amount) public returns(bool) {\n        var seller = getAddress(_seller);\n        var buyer = getAddress(_buyer);\n        uint256 currentCost = convertToken(false, amount);\n        Sold(buyer, seller, amount, currentCost); //give me the event log of this event\n        \n        transferEnergy1(_buyer, _seller, amount); \n        Brought(buyer, seller, amount, currentCost);\n        return true;\n    }\n    function transferEnergy1(bytes32 buyer, bytes32 seller, uint256 amount) public returns(bool) {\n        // not enough enits to give out\n        if ( getBalance(seller) < amount) { \n            return false;\n        }\n        \n        // sending and receiving the enits\n        // deleting seller's energy amount and increasing buyer's amount \n        setBalance(getAddress(seller), amount, false);\n        depositEnits(buyer, amount);\n\n        //payable function - I want to send ethers to seller from buyers\n        // getAddress(seller).transfer(convertToken(false, amount));\n        Transferred(getAddress(buyer), getAddress(seller), amount);\n        return true; \n    }    \n    \n    /* <function> remove()\n    * Purpose: Makes the contract remove itself from the blockchain.\n    * Parameters: None.\n    * Returns: Nothing\n    */\n    function remove() public {\n        if (msg.sender == owner) {\n            selfdestruct(owner);\n        }\n    }\n}\n",
  "sourcePath": "/home/david/Documents/EthereumEnergyMicrotransactions/curProject/contracts/TokenTransaction.sol",
  "compiler": {
    "name": "solc",
    "version": "0.4.18+commit.9cf6e910.Emscripten.clang"
  },
  "schemaVersion": "1.0.1",
  "updatedAt": "2017-12-04T03:06:32.605Z"
}