{
  "contractName": "TokenTransaction",
  "abi": [
    {
      "constant": false,
      "inputs": [
        {
          "name": "_username",
          "type": "address"
        },
        {
          "name": "amount",
          "type": "uint256"
        },
        {
          "name": "flag",
          "type": "bool"
        }
      ],
      "name": "setBalance",
      "outputs": [
        {
          "name": "",
          "type": "bytes32"
        }
      ],
      "payable": false,
      "stateMutability": "nonpayable",
      "type": "function"
    },
    {
      "constant": true,
      "inputs": [
        {
          "name": "",
          "type": "address"
        },
        {
          "name": "initialAmount",
          "type": "uint256"
        }
      ],
      "name": "Names",
      "outputs": [
        {
          "name": "",
          "type": "bytes32"
        }
      ],
      "payable": false,
      "stateMutability": "view",
      "type": "function"
    },
    {
      "constant": false,
      "inputs": [
        {
          "name": "uAddress",
          "type": "address"
        },
        {
          "name": "userName",
          "type": "bytes32"
        }
      ],
      "name": "register",
      "outputs": [
        {
          "name": "success",
          "type": "bool"
        }
      ],
      "payable": false,
      "stateMutability": "nonpayable",
      "type": "function"
    },
    {
      "constant": true,
      "inputs": [
        {
          "name": "username",
          "type": "bytes32"
        },
        {
          "name": "amount",
          "type": "uint256"
        }
      ],
      "name": "getAddress",
      "outputs": [
        {
          "name": "",
          "type": "address"
        }
      ],
      "payable": false,
      "stateMutability": "view",
      "type": "function"
    },
    {
      "inputs": [
        {
          "name": "userName",
          "type": "bytes32"
        }
      ],
      "payable": false,
      "stateMutability": "view",
      "type": "function",
      "constant": true,
      "name": "isRegistered",
      "outputs": [
        {
          "name": "registered",
          "type": "bool"
        }
      ]
    },
    {
      "anonymous": false,
      "inputs": [
        {
          "indexed": false,
          "name": "_buyer",
          "type": "bytes32"
        },
        {
          "indexed": false,
          "name": "_seller",
          "type": "bytes32"
        },
        {
          "indexed": false,
          "name": "amount",
          "type": "uint256"
        },
        {
          "indexed": false,
          "name": "etherAmount",
          "type": "uint256"
        }
      ],
      "name": "exchange1",
      "type": "function",
      "payable": false,
      "stateMutability": "nonpayable",
      "constant": false,
      "outputs": [
        {
          "name": "",
          "type": "bool"
        }
      ]
    },
    {
      "anonymous": false,
      "inputs": [
        {
          "indexed": false,
          "name": "toEnit",
          "type": "bool"
        },
        {
          "indexed": false,
          "name": "initialAmount",
          "type": "uint256"
        },
        {
          "indexed": false,
          "name": "enitAmount",
          "type": "uint256"
        },
        {
          "indexed": false,
          "name": "etherAmount",
          "type": "uint256"
        }
      ],
      "name": "convertToken",
      "type": "function",
      "constant": true,
      "outputs": [
        {
          "name": "value",
          "type": "uint256"
        }
      ],
      "payable": false,
      "stateMutability": "view"
    },
    {
      "anonymous": false,
      "inputs": [
        {
          "indexed": false,
          "name": "uAddress",
          "type": "address"
        },
        {
          "indexed": false,
          "name": "seller",
          "type": "address"
        },
        {
          "indexed": false,
          "name": "enitAmount",
          "type": "uint256"
        },
        {
          "indexed": false,
          "name": "etherAmount",
          "type": "uint256"
        }
      ],
      "name": "getName",
      "type": "function",
      "constant": true,
      "outputs": [
        {
          "name": "",
          "type": "bytes32"
        }
      ],
      "payable": false,
      "stateMutability": "view"
    },
    {
      "anonymous": false,
      "inputs": [
        {
          "indexed": false,
          "name": "username",
          "type": "bytes32"
        },
        {
          "indexed": false,
          "name": "amount",
          "type": "uint256"
        },
        {
          "indexed": false,
          "name": "value",
          "type": "uint256"
        }
      ],
      "name": "owner",
      "type": "function",
      "constant": true,
      "outputs": [
        {
          "name": "",
          "type": "address"
        }
      ],
      "payable": false,
      "stateMutability": "view"
    },
    {
      "anonymous": false,
      "inputs": [
        {
          "indexed": false,
          "name": "buyer",
          "type": "bytes32"
        },
        {
          "indexed": false,
          "name": "seller",
          "type": "bytes32"
        },
        {
          "name": "amount",
          "type": "uint256"
        }
      ],
      "name": "transferEnergy1",
      "type": "function",
      "constant": false,
      "outputs": [
        {
          "name": "",
          "type": "bool"
        },
        {
          "name": "username",
          "type": "bytes32"
        },
        {
          "name": "enitBalance",
          "type": "uint256"
        },
        {
          "name": "registered",
          "type": "bool"
        }
      ],
      "payable": false,
      "stateMutability": "nonpayable"
    },
    {
      "constant": true,
      "inputs": [
        {
          "name": "username",
          "type": "bytes32"
        }
      ],
      "name": "getBalance",
      "outputs": [
        {
          "name": "",
          "type": "uint256"
        }
      ],
      "payable": false,
      "stateMutability": "view",
      "type": "function"
    },
    {
      "constant": true,
      "inputs": [
        {
          "name": "",
          "type": "bytes32"
        },
        {
          "name": "value",
          "type": "uint256"
        },
        {
          "name": "amount",
          "type": "uint256"
        }
      ],
      "name": "Accounts",
      "outputs": [
        {
          "name": "userAddress",
          "type": "address"
        },
        {
          "name": "username",
          "type": "bytes32"
        },
        {
          "name": "enitBalance",
          "type": "uint256"
        },
        {
          "name": "registered",
          "type": "bool"
        }
      ],
      "payable": false,
      "stateMutability": "view",
      "type": "function"
    },
    {
      "constant": false,
      "inputs": [
        {
          "name": "buyer",
          "type": "bytes32"
        },
        {
          "name": "seller",
          "type": "bytes32"
        },
        {
          "name": "amount",
          "type": "uint256"
        }
      ],
      "name": "remove",
      "outputs": [
        {
          "name": "",
          "type": "bool"
        }
      ],
      "payable": false,
      "stateMutability": "nonpayable",
      "type": "function"
    },
    {
      "inputs": [
        {
          "name": "name",
          "type": "bytes32"
        },
        {
          "name": "value",
          "type": "uint256"
        },
        {
          "name": "amount",
          "type": "uint256"
        }
      ],
      "payable": false,
      "stateMutability": "nonpayable",
      "type": "function",
      "constant": false,
      "name": "depositEnits",
      "outputs": [
        {
          "name": "",
          "type": "bool"
        }
      ]
    },
    {
      "anonymous": false,
      "inputs": [
        {
          "indexed": false,
          "name": "buyer",
          "type": "bytes32"
        },
        {
          "indexed": false,
          "name": "seller",
          "type": "bytes32"
        },
        {
          "indexed": false,
          "name": "amount",
          "type": "uint256"
        },
        {
          "indexed": false,
          "name": "etherAmount",
          "type": "uint256"
        }
      ],
      "name": "transferEnergy",
      "type": "function",
      "payable": true,
      "stateMutability": "payable",
      "constant": false,
      "outputs": [
        {
          "name": "",
          "type": "bool"
        }
      ]
    },
    {
      "anonymous": false,
      "inputs": [
        {
          "indexed": false,
          "name": "_buyer",
          "type": "bytes32"
        },
        {
          "indexed": false,
          "name": "_seller",
          "type": "bytes32"
        },
        {
          "indexed": false,
          "name": "amount",
          "type": "uint256"
        },
        {
          "indexed": false,
          "name": "etherAmount",
          "type": "uint256"
        }
      ],
      "name": "exchange",
      "type": "function",
      "constant": false,
      "outputs": [
        {
          "name": "",
          "type": "bool"
        }
      ],
      "payable": false,
      "stateMutability": "nonpayable"
    },
    {
      "anonymous": false,
      "inputs": [
        {
          "indexed": false,
          "name": "buyer",
          "type": "address"
        },
        {
          "indexed": false,
          "name": "seller",
          "type": "address"
        },
        {
          "indexed": false,
          "name": "enitAmount",
          "type": "uint256"
        },
        {
          "indexed": false,
          "name": "etherAmount",
          "type": "uint256"
        }
      ],
      "name": "Brought",
      "type": "constructor",
      "payable": false,
      "stateMutability": "nonpayable"
    },
    {
      "anonymous": false,
      "inputs": [
        {
          "indexed": false,
          "name": "buyer",
          "type": "address"
        },
        {
          "indexed": false,
          "name": "seller",
          "type": "address"
        },
        {
          "indexed": false,
          "name": "enitAmount",
          "type": "uint256"
        },
        {
          "indexed": false,
          "name": "etherAmount",
          "type": "uint256"
        }
      ],
      "name": "Sold",
      "type": "event"
    },
    {
      "anonymous": false,
      "inputs": [
        {
          "indexed": false,
          "name": "buyer",
          "type": "address"
        },
        {
          "indexed": false,
          "name": "seller",
          "type": "address"
        },
        {
          "indexed": false,
          "name": "enitAmount",
          "type": "uint256"
        },
        {
          "indexed": false,
          "name": "etherAmount",
          "type": "uint256"
        }
      ],
      "name": "Brought",
      "type": "event"
    },
    {
      "anonymous": false,
      "inputs": [
        {
          "indexed": false,
          "name": "_from",
          "type": "address"
        },
        {
          "indexed": false,
          "name": "_to",
          "type": "address"
        },
        {
          "indexed": false,
          "name": "value",
          "type": "uint256"
        }
      ],
      "name": "Transferred",
      "type": "event"
    },
    {
      "anonymous": false,
      "inputs": [
        {
          "indexed": false,
          "name": "sender",
          "type": "address"
        },
        {
          "indexed": false,
          "name": "buyer",
          "type": "uint256"
        }
      ],
      "name": "Deposit",
      "type": "event"
    },
    {
      "anonymous": false,
      "inputs": [
        {
          "indexed": false,
          "name": "buyer",
          "type": "address"
        },
        {
          "indexed": false,
          "name": "otherBuyer",
          "type": "address"
        },
        {
          "indexed": false,
          "name": "amountCost",
          "type": "uint256"
        }
      ],
      "name": "BadAction",
      "type": "event"
    },
    {
      "anonymous": false,
      "inputs": [
        {
          "indexed": false,
          "name": "username",
          "type": "bytes32"
        },
        {
          "indexed": false,
          "name": "userAddress",
          "type": "address"
        }
      ],
      "name": "Registered",
      "type": "event"
    }
  ],
  "bytecode": "0x60606040526000600355610d84600555341561001a57600080fd5b336000806101000a81548173ffffffffffffffffffffffffffffffffffffffff021916908373ffffffffffffffffffffffffffffffffffffffff16021790555033600460006101000a81548173ffffffffffffffffffffffffffffffffffffffff021916908373ffffffffffffffffffffffffffffffffffffffff160217905550610f7d806100aa6000396000f3006060604052600436106100e6576000357c0100000000000000000000000000000000000000000000000000000000900463ffffffff168063059ef8d7146100eb5780631de39af4146101385780631e7a505f1461018d57806321f8a721146101eb57806327258b221461025257806345154a81146102915780634d445a6f146102e65780635fd4b08a146103285780638da5cb5b1461037d5780638dedbca2146103d25780638e7394611461042757806398ffbcdd14610462578063a7f43779146104ea578063bcf95678146104ff578063da2ca38b1461052f578063fd73d99f14610579575b600080fd5b34156100f657600080fd5b610136600480803573ffffffffffffffffffffffffffffffffffffffff1690602001909190803590602001909190803515159060200190919050506105ce565b005b341561014357600080fd5b61016f600480803573ffffffffffffffffffffffffffffffffffffffff16906020019091905050610645565b60405180826000191660001916815260200191505060405180910390f35b341561019857600080fd5b6101d1600480803573ffffffffffffffffffffffffffffffffffffffff169060200190919080356000191690602001909190505061065d565b604051808215151515815260200191505060405180910390f35b34156101f657600080fd5b6102106004808035600019169060200190919050506107cc565b604051808273ffffffffffffffffffffffffffffffffffffffff1673ffffffffffffffffffffffffffffffffffffffff16815260200191505060405180910390f35b341561025d57600080fd5b610277600480803560001916906020019091905050610814565b604051808215151515815260200191505060405180910390f35b341561029c57600080fd5b6102cc6004808035600019169060200190919080356000191690602001909190803590602001909190505061085a565b604051808215151515815260200191505060405180910390f35b34156102f157600080fd5b610312600480803515159060200190919080359060200190919050506109eb565b6040518082815260200191505060405180910390f35b341561033357600080fd5b61035f600480803573ffffffffffffffffffffffffffffffffffffffff16906020019091905050610a16565b60405180826000191660001916815260200191505060405180910390f35b341561038857600080fd5b610390610a5f565b604051808273ffffffffffffffffffffffffffffffffffffffff1673ffffffffffffffffffffffffffffffffffffffff16815260200191505060405180910390f35b34156103dd57600080fd5b61040d60048080356000191690602001909190803560001916906020019091908035906020019091905050610a85565b604051808215151515815260200191505060405180910390f35b341561043257600080fd5b61044c600480803560001916906020019091905050610b79565b6040518082815260200191505060405180910390f35b341561046d57600080fd5b610487600480803560001916906020019091905050610ba1565b604051808573ffffffffffffffffffffffffffffffffffffffff1673ffffffffffffffffffffffffffffffffffffffff16815260200184600019166000191681526020018381526020018215151515815260200194505050505060405180910390f35b34156104f557600080fd5b6104fd610bfe565b005b341561050a57600080fd5b61052d600480803560001916906020019091908035906020019091905050610c91565b005b61055f60048080356000191690602001909190803560001916906020019091908035906020019091905050610d1c565b604051808215151515815260200191505060405180910390f35b341561058457600080fd5b6105b460048080356000191690602001909190803560001916906020019091908035906020019091905050610e67565b604051808215151515815260200191505060405180910390f35b60006105d984610a16565b9050811561061257826001600083600019166000191681526020019081526020016000206002016000828254019250508190555061063f565b82600160008360001916600019168152602001908152602001600020600201600082825403925050819055505b50505050565b60026020528060005260406000206000915090505481565b600080600160008460001916600019168152602001908152602001600020905082600260008673ffffffffffffffffffffffffffffffffffffffff1673ffffffffffffffffffffffffffffffffffffffff1681526020019081526020016000208160001916905550838160000160006101000a81548173ffffffffffffffffffffffffffffffffffffffff021916908373ffffffffffffffffffffffffffffffffffffffff160217905550828160010181600019169055506000816002018190555060018160030160006101000a81548160ff0219169083151502179055506003600081548092919060010191905055507f7d917fcbc9a29a9705ff9936ffa599500e4fd902e4486bae317414fe967b307c83856040518083600019166000191681526020018273ffffffffffffffffffffffffffffffffffffffff1673ffffffffffffffffffffffffffffffffffffffff1681526020019250505060405180910390a1600191505092915050565b600060016000836000191660001916815260200190815260200160002060000160009054906101000a900473ffffffffffffffffffffffffffffffffffffffff169050919050565b600060016000836000191660001916815260200190815260200160002060030160009054906101000a900460ff16156108505760019050610855565b600090505b919050565b600080600080610869866107cc565b9250610874876107cc565b91506108816000866109eb565b90507f16dd16959a056953a63cf14bf427881e762e54f03d86b864efea8238dd3b822f82848784604051808573ffffffffffffffffffffffffffffffffffffffff1673ffffffffffffffffffffffffffffffffffffffff1681526020018473ffffffffffffffffffffffffffffffffffffffff1673ffffffffffffffffffffffffffffffffffffffff16815260200183815260200182815260200194505050505060405180910390a1610935878787610a85565b507f1c666f25da5e0f0004d29c8379bbc578b86f1c02a976db337e1abafb291e09db82848784604051808573ffffffffffffffffffffffffffffffffffffffff1673ffffffffffffffffffffffffffffffffffffffff1681526020018473ffffffffffffffffffffffffffffffffffffffff1673ffffffffffffffffffffffffffffffffffffffff16815260200183815260200182815260200194505050505060405180910390a1600193505050509392505050565b600082156109ff5760055482029050610a10565b60055482811515610a0c57fe5b0490505b92915050565b6000600260008373ffffffffffffffffffffffffffffffffffffffff1673ffffffffffffffffffffffffffffffffffffffff168152602001908152602001600020549050919050565b600460009054906101000a900473ffffffffffffffffffffffffffffffffffffffff1681565b600081610a9184610b79565b1015610aa05760009050610b72565b610ab4610aac846107cc565b8360006105ce565b610abe8483610c91565b7fd1ba4ac2e2a11b5101f6cb4d978f514a155b421e8ec396d2d9abaf0bb02917ee610ae8856107cc565b610af1856107cc565b84604051808473ffffffffffffffffffffffffffffffffffffffff1673ffffffffffffffffffffffffffffffffffffffff1681526020018373ffffffffffffffffffffffffffffffffffffffff1673ffffffffffffffffffffffffffffffffffffffff168152602001828152602001935050505060405180910390a1600190505b9392505050565b6000600160008360001916600019168152602001908152602001600020600201549050919050565b60016020528060005260406000206000915090508060000160009054906101000a900473ffffffffffffffffffffffffffffffffffffffff16908060010154908060020154908060030160009054906101000a900460ff16905084565b600460009054906101000a900473ffffffffffffffffffffffffffffffffffffffff1673ffffffffffffffffffffffffffffffffffffffff163373ffffffffffffffffffffffffffffffffffffffff161415610c8f57600460009054906101000a900473ffffffffffffffffffffffffffffffffffffffff1673ffffffffffffffffffffffffffffffffffffffff16ff5b565b610ca5610c9d836107cc565b8260016105ce565b7fe1fffcc4923d04b559f4d29a8bfc6cda04eb5b0d3c460751c2402c5c5cc9109c610ccf836107cc565b82604051808373ffffffffffffffffffffffffffffffffffffffff1673ffffffffffffffffffffffffffffffffffffffff1681526020018281526020019250505060405180910390a15050565b60008082610d2985610b79565b1015610d385760009150610e5f565b610d436000846109eb565b9050610d59610d51856107cc565b8460006105ce565b610d638584610c91565b610d6c846107cc565b73ffffffffffffffffffffffffffffffffffffffff166108fc829081150290604051600060405180830381858888f193505050501515610dab57600080fd5b7fd1ba4ac2e2a11b5101f6cb4d978f514a155b421e8ec396d2d9abaf0bb02917ee610dd5866107cc565b610dde866107cc565b85604051808473ffffffffffffffffffffffffffffffffffffffff1673ffffffffffffffffffffffffffffffffffffffff1681526020018373ffffffffffffffffffffffffffffffffffffffff1673ffffffffffffffffffffffffffffffffffffffff168152602001828152602001935050505060405180910390a1600191505b509392505050565b600080600080610e76866107cc565b9250610e81876107cc565b9150610e8e6000866109eb565b9050610e9b878787610d1c565b507f1c666f25da5e0f0004d29c8379bbc578b86f1c02a976db337e1abafb291e09db82848784604051808573ffffffffffffffffffffffffffffffffffffffff1673ffffffffffffffffffffffffffffffffffffffff1681526020018473ffffffffffffffffffffffffffffffffffffffff1673ffffffffffffffffffffffffffffffffffffffff16815260200183815260200182815260200194505050505060405180910390a16001935050505093925050505600a165627a7a723058203e26ea3f0e535a4b0174dedff4bb7c405c51a48fef3e833dd070ed47f913095d0029",
  "source": "pragma solidity ^0.4.18;\n\n/* Alright, 4th change in the entire program, this time the database will only have the mappings \n * and the ability to register users onto the database, however, it will not create new contracts\n */\n\n// the workaround plan for parity is that this database will only hold the mappings\n// and nothing else. The functions will be public so that it can only be called at \n// TokenTransaction and nothing else.\ncontract TransactionFactory {\n\n    struct UserAccount {\n        address userAddress;\n        bytes32 username; \n        uint256 enitBalance;\n        bool registered;\n    }\n\n    address owner;\n    mapping (bytes32 => UserAccount) public Accounts; \n    mapping (address => bytes32) public Names; //kind of inefficient but it is what it is\n    // might create a permission mapping to give user some power like sudo\n    int numberOfUsers = 0;\n\n    event Registered(bytes32 username, address userAddress);\n\n    /* Purpose: Setting the owner \n     * Returns: Nothing, just set who is the boss\n    */\n    function TransactionFactory() public {\n        owner = msg.sender;\n    }\n\n    function getBalance(bytes32 username) public constant returns(uint256) { \n        return (Accounts[username].enitBalance);\n    }\n    function setBalance(address _username, uint256 amount, bool flag) public {\n        bytes32 username = getName(_username);\n        if (flag) {\n            Accounts[username].enitBalance += amount;\n        } else { \n            Accounts[username].enitBalance -= amount;\n        }\n    }\n    function getAddress(bytes32 username) public constant returns(address) { \n        return (Accounts[username].userAddress) ; \n    }\n    function getName(address uAddress) public constant returns(bytes32) { \n        return (Names[uAddress]) ; \n    }\n    /* Purpose: creates a new account within the database\n     * Input: unknownAddress, desiredName\n     * Returns: bool\n     */\n    function register(address uAddress, bytes32 userName) public returns(bool success) {\n        var account = Accounts[userName];\n        Names[uAddress] = userName;\n        account.userAddress = uAddress;\n        account.username = userName;\n        account.enitBalance = 0;\n        account.registered = true;\n        numberOfUsers++;\n        Registered(userName, uAddress);\n        return true; \n    }\n    /* Purpose: checks if user is registered\n     * Input: username \n     * returns: bool\n     */ \n    function isRegistered(bytes32 userName) public constant returns(bool registered) {\n        if (Accounts[userName].registered){\n            return true; \n        } else {\n            return false;\n        }\n    }\n}\n\ncontract TokenTransaction is TransactionFactory {\n\n    address public owner;\n    // Log the transfer/action to blockchain \n    event Sold(address buyer, address seller, uint256 enitAmount, uint256 etherAmount);\n    event Brought(address buyer, address seller, uint256 enitAmount, uint256 etherAmount);\n    event Transferred(address _from, address _to, uint256 value);\n    event Deposit(address sender, uint256 buyer);\n    event BadAction(address buyer, address otherBuyer, uint256 amountCost);\n    uint256 ratioEtherToEnits = 3460;\n\n    /* Purpose: creates the instance \n     * Input: None \n     * Returns: None\n     */\n    function TokenTransaction() TransactionFactory() public {\n        owner = msg.sender;\n    }\n\n    /* Purpose: converts depending on boolean:\n                False = Enits to Ethers \n                True = Ethers to Enits \n     * Input: boolean, uint256\n     * Returns: None\n     */\n    function convertToken(bool toEnit, uint256 initialAmount) public constant returns(uint256 value){\n        if (toEnit) {\n            // Amount * 3460\n            return (initialAmount * ratioEtherToEnits);\n        } else {\n            return (initialAmount / ratioEtherToEnits);\n        }\n    }\n    /* Purpose: deposit money\n     * Input: uint256\n     * returns: bool\n     */\n    // might have an error here \n    function depositEnits(bytes32 name, uint256 value) public {\n        setBalance(getAddress(name), value, true);\n        Deposit(getAddress(name), value);\n    }\n    /* Purpose: transfers ether to seller and enit to buyer\n     * Input: string_seller, uint256_amount \n     * Returns: bool\n     */\n    function transferEnergy(bytes32 buyer, bytes32 seller, uint256 amount) payable public returns(bool) {\n        // not enough enits to give out\n        if ( getBalance(seller) < amount) { \n            return false;\n        }\n        // if (msg.sender != getAddress(buyer) ) {\n        //     BadAction(getAddress(buyer), msg.sender, amount); \n        //     return false; \n        // }\n        uint256 curCost = convertToken(false, amount);\n        // if (getAddress(seller).balance < curCost) { \n        //     BadAction(getAddress(buyer), getAddress(seller), curCost);\n        //     return false;\n        // }\n        // sending and receiving the enits\n        // deleting seller's energy amount and increasing buyer's amount \n        setBalance(getAddress(seller), amount, false);\n        depositEnits(buyer, amount);\n\n        //payable function - I want to send ethers to seller from buyers\n        getAddress(seller).transfer(curCost);\n        Transferred(getAddress(buyer), getAddress(seller), amount);\n        return true; \n    }\n\n    /* Purpose: exchange money or a handshake here \n                buyer wants to buy energy from seller\n     * Input: seller, buyer, amount \n     * Returns: bool\n     */\n    function exchange(bytes32 _buyer, bytes32 _seller, uint amount) public returns(bool) {\n        var seller = getAddress(_seller);\n        var buyer = getAddress(_buyer);\n        uint256 currentCost = convertToken(false, amount);        \n        transferEnergy(_buyer, _seller, amount); \n        Brought(buyer, seller, amount, currentCost);\n        return true;\n    }\n\n    function exchange1(bytes32 _buyer, bytes32 _seller, uint amount) public returns(bool) {\n        var seller = getAddress(_seller);\n        var buyer = getAddress(_buyer);\n        uint256 currentCost = convertToken(false, amount);\n        Sold(buyer, seller, amount, currentCost); //give me the event log of this event\n        \n        transferEnergy1(_buyer, _seller, amount); \n        Brought(buyer, seller, amount, currentCost);\n        return true;\n    }\n    function transferEnergy1(bytes32 buyer, bytes32 seller, uint256 amount) public returns(bool) {\n        // not enough enits to give out\n        if ( getBalance(seller) < amount) { \n            return false;\n        }\n        \n        // sending and receiving the enits\n        // deleting seller's energy amount and increasing buyer's amount \n        setBalance(getAddress(seller), amount, false);\n        depositEnits(buyer, amount);\n\n        //payable function - I want to send ethers to seller from buyers\n        // getAddress(seller).transfer(convertToken(false, amount));\n        Transferred(getAddress(buyer), getAddress(seller), amount);\n        return true; \n    }    \n    \n    /* <function> remove()\n    * Purpose: Makes the contract remove itself from the blockchain.\n    * Parameters: None.\n    * Returns: Nothing\n    */\n    function remove() public {\n        if (msg.sender == owner) {\n            selfdestruct(owner);\n        }\n    }\n}\n",
  "sourcePath": "/home/david/Documents/EthereumEnergyMicrotransactions/curProject/contracts/TokenTransaction.sol",
  "compiler": {
    "name": "solc",
    "version": "0.4.18+commit.9cf6e910.Emscripten.clang"
  },
  "schemaVersion": "1.0.1",
  "updatedAt": "2017-12-03T22:51:05.084Z"
}