{
  "contractName": "TransactionFactory",
  "abi": [
    {
      "constant": false,
      "inputs": [
        {
          "name": "_username",
          "type": "address"
        },
        {
          "name": "amount",
          "type": "uint256"
        },
        {
          "name": "flag",
          "type": "bool"
        }
      ],
      "name": "setBalance",
      "outputs": [],
      "payable": false,
      "stateMutability": "nonpayable",
      "type": "function"
    },
    {
      "constant": false,
      "inputs": [
        {
          "name": "name",
          "type": "bytes32"
        }
      ],
      "name": "createTransaction",
      "outputs": [
        {
          "name": "transAddress",
          "type": "address"
        }
      ],
      "payable": false,
      "stateMutability": "nonpayable",
      "type": "function"
    },
    {
      "constant": false,
      "inputs": [
        {
          "name": "transAddress",
          "type": "address"
        }
      ],
      "name": "removeTransaction",
      "outputs": [],
      "payable": false,
      "stateMutability": "nonpayable",
      "type": "function"
    },
    {
      "constant": true,
      "inputs": [
        {
          "name": "",
          "type": "address"
        }
      ],
      "name": "Names",
      "outputs": [
        {
          "name": "",
          "type": "bytes32"
        }
      ],
      "payable": false,
      "stateMutability": "view",
      "type": "function"
    },
    {
      "constant": false,
      "inputs": [
        {
          "name": "uAddress",
          "type": "address"
        },
        {
          "name": "userName",
          "type": "bytes32"
        }
      ],
      "name": "register",
      "outputs": [
        {
          "name": "success",
          "type": "bool"
        }
      ],
      "payable": false,
      "stateMutability": "nonpayable",
      "type": "function"
    },
    {
      "constant": true,
      "inputs": [
        {
          "name": "username",
          "type": "bytes32"
        }
      ],
      "name": "getAddress",
      "outputs": [
        {
          "name": "",
          "type": "address"
        }
      ],
      "payable": false,
      "stateMutability": "view",
      "type": "function"
    },
    {
      "constant": true,
      "inputs": [
        {
          "name": "userName",
          "type": "bytes32"
        }
      ],
      "name": "isRegistered",
      "outputs": [
        {
          "name": "registered",
          "type": "bool"
        }
      ],
      "payable": false,
      "stateMutability": "view",
      "type": "function"
    },
    {
      "constant": true,
      "inputs": [
        {
          "name": "",
          "type": "uint256"
        }
      ],
      "name": "contracts",
      "outputs": [
        {
          "name": "",
          "type": "address"
        }
      ],
      "payable": false,
      "stateMutability": "view",
      "type": "function"
    },
    {
      "constant": true,
      "inputs": [
        {
          "name": "uAddress",
          "type": "address"
        }
      ],
      "name": "getName",
      "outputs": [
        {
          "name": "",
          "type": "bytes32"
        }
      ],
      "payable": false,
      "stateMutability": "view",
      "type": "function"
    },
    {
      "constant": true,
      "inputs": [
        {
          "name": "username",
          "type": "bytes32"
        }
      ],
      "name": "getBalance",
      "outputs": [
        {
          "name": "",
          "type": "uint256"
        }
      ],
      "payable": false,
      "stateMutability": "view",
      "type": "function"
    },
    {
      "constant": true,
      "inputs": [
        {
          "name": "",
          "type": "bytes32"
        }
      ],
      "name": "Accounts",
      "outputs": [
        {
          "name": "userAddress",
          "type": "address"
        },
        {
          "name": "username",
          "type": "bytes32"
        },
        {
          "name": "enitBalance",
          "type": "uint256"
        },
        {
          "name": "registered",
          "type": "bool"
        }
      ],
      "payable": false,
      "stateMutability": "view",
      "type": "function"
    },
    {
      "inputs": [],
      "payable": false,
      "stateMutability": "nonpayable",
      "type": "constructor"
    },
    {
      "anonymous": false,
      "inputs": [
        {
          "indexed": false,
          "name": "username",
          "type": "bytes32"
        },
        {
          "indexed": false,
          "name": "userAddress",
          "type": "address"
        }
      ],
      "name": "Registered",
      "type": "event"
    }
  ],
  "bytecode": "0x60606040526000600455341561001457600080fd5b336000806101000a81548173ffffffffffffffffffffffffffffffffffffffff021916908373ffffffffffffffffffffffffffffffffffffffff1602179055506112be806100636000396000f3006060604052600436106100af576000357c0100000000000000000000000000000000000000000000000000000000900463ffffffff168063059ef8d7146100b457806309b9d8ba146101015780630ddb3d23146101685780631de39af4146101a15780631e7a505f146101f657806321f8a7211461025457806327258b22146102bb578063474da79a146102fa5780635fd4b08a1461035d5780638e739461146103b257806398ffbcdd146103ed575b600080fd5b34156100bf57600080fd5b6100ff600480803573ffffffffffffffffffffffffffffffffffffffff169060200190919080359060200190919080351515906020019091905050610475565b005b341561010c57600080fd5b6101266004808035600019169060200190919050506104ec565b604051808273ffffffffffffffffffffffffffffffffffffffff1673ffffffffffffffffffffffffffffffffffffffff16815260200191505060405180910390f35b341561017357600080fd5b61019f600480803573ffffffffffffffffffffffffffffffffffffffff1690602001909190505061058e565b005b34156101ac57600080fd5b6101d8600480803573ffffffffffffffffffffffffffffffffffffffff16906020019091905050610608565b60405180826000191660001916815260200191505060405180910390f35b341561020157600080fd5b61023a600480803573ffffffffffffffffffffffffffffffffffffffff1690602001909190803560001916906020019091905050610620565b604051808215151515815260200191505060405180910390f35b341561025f57600080fd5b61027960048080356000191690602001909190505061078f565b604051808273ffffffffffffffffffffffffffffffffffffffff1673ffffffffffffffffffffffffffffffffffffffff16815260200191505060405180910390f35b34156102c657600080fd5b6102e06004808035600019169060200190919050506107d7565b604051808215151515815260200191505060405180910390f35b341561030557600080fd5b61031b600480803590602001909190505061081d565b604051808273ffffffffffffffffffffffffffffffffffffffff1673ffffffffffffffffffffffffffffffffffffffff16815260200191505060405180910390f35b341561036857600080fd5b610394600480803573ffffffffffffffffffffffffffffffffffffffff1690602001909190505061085c565b60405180826000191660001916815260200191505060405180910390f35b34156103bd57600080fd5b6103d76004808035600019169060200190919050506108a5565b6040518082815260200191505060405180910390f35b34156103f857600080fd5b6104126004808035600019169060200190919050506108cd565b604051808573ffffffffffffffffffffffffffffffffffffffff1673ffffffffffffffffffffffffffffffffffffffff16815260200184600019166000191681526020018381526020018215151515815260200194505050505060405180910390f35b60006104808461085c565b905081156104b95782600160008360001916600019168152602001908152602001600020600201600082825401925050819055506104e6565b82600160008360001916600019168152602001908152602001600020600201600082825403925050819055505b50505050565b600080826104f861092a565b808260001916600019168152602001915050604051809103906000f080151561052057600080fd5b905060038054806001018281610536919061093a565b9160005260206000209001600083909190916101000a81548173ffffffffffffffffffffffffffffffffffffffff021916908373ffffffffffffffffffffffffffffffffffffffff1602179055505080915050919050565b8073ffffffffffffffffffffffffffffffffffffffff1663a7f437796040518163ffffffff167c0100000000000000000000000000000000000000000000000000000000028152600401600060405180830381600087803b15156105f157600080fd5b6102c65a03f1151561060257600080fd5b50505050565b60026020528060005260406000206000915090505481565b600080600160008460001916600019168152602001908152602001600020905082600260008673ffffffffffffffffffffffffffffffffffffffff1673ffffffffffffffffffffffffffffffffffffffff1681526020019081526020016000208160001916905550838160000160006101000a81548173ffffffffffffffffffffffffffffffffffffffff021916908373ffffffffffffffffffffffffffffffffffffffff160217905550828160010181600019169055506000816002018190555060018160030160006101000a81548160ff0219169083151502179055506004600081548092919060010191905055507f7d917fcbc9a29a9705ff9936ffa599500e4fd902e4486bae317414fe967b307c83856040518083600019166000191681526020018273ffffffffffffffffffffffffffffffffffffffff1673ffffffffffffffffffffffffffffffffffffffff1681526020019250505060405180910390a1600191505092915050565b600060016000836000191660001916815260200190815260200160002060000160009054906101000a900473ffffffffffffffffffffffffffffffffffffffff169050919050565b600060016000836000191660001916815260200190815260200160002060030160009054906101000a900460ff16156108135760019050610818565b600090505b919050565b60038181548110151561082c57fe5b90600052602060002090016000915054906101000a900473ffffffffffffffffffffffffffffffffffffffff1681565b6000600260008373ffffffffffffffffffffffffffffffffffffffff1673ffffffffffffffffffffffffffffffffffffffff168152602001908152602001600020549050919050565b6000600160008360001916600019168152602001908152602001600020600201549050919050565b60016020528060005260406000206000915090508060000160009054906101000a900473ffffffffffffffffffffffffffffffffffffffff16908060010154908060020154908060030160009054906101000a900460ff16905084565b6040516109078061098c83390190565b815481835581811511610961578183600052602060002091820191016109609190610966565b5b505050565b61098891905b8082111561098457600081600090555060010161096c565b5090565b9056006060604052610d84600355341561001557600080fd5b60405160208061090783398101604052808051906020019091905050336000806101000a81548173ffffffffffffffffffffffffffffffffffffffff021916908373ffffffffffffffffffffffffffffffffffffffff160217905550806001816000191690555033600260006101000a81548173ffffffffffffffffffffffffffffffffffffffff021916908373ffffffffffffffffffffffffffffffffffffffff1602179055505061083a806100cd6000396000f300606060405260043610610062576000357c0100000000000000000000000000000000000000000000000000000000900463ffffffff168063256eefad146100675780634d445a6f1461008a5780636a467394146100cc578063a7f4377914610109575b600080fd5b341561007257600080fd5b610088600480803590602001909190505061011e565b005b341561009557600080fd5b6100b660048080351515906020019091908035906020019091905050610271565b6040518082815260200191505060405180910390f35b6100ef60048080356000191690602001909190803590602001909190505061029c565b604051808215151515815260200191505060405180910390f35b341561011457600080fd5b61011c61077d565b005b600260009054906101000a900473ffffffffffffffffffffffffffffffffffffffff1673ffffffffffffffffffffffffffffffffffffffff1663059ef8d7338360016040518463ffffffff167c0100000000000000000000000000000000000000000000000000000000028152600401808473ffffffffffffffffffffffffffffffffffffffff1673ffffffffffffffffffffffffffffffffffffffff168152602001838152602001821515151581526020019350505050600060405180830381600087803b15156101ef57600080fd5b6102c65a03f1151561020057600080fd5b5050507fe1fffcc4923d04b559f4d29a8bfc6cda04eb5b0d3c460751c2402c5c5cc9109c3382604051808373ffffffffffffffffffffffffffffffffffffffff1673ffffffffffffffffffffffffffffffffffffffff1681526020018281526020019250505060405180910390a150565b600082156102855760035482029050610296565b6003548281151561029257fe5b0490505b92915050565b600081600260009054906101000a900473ffffffffffffffffffffffffffffffffffffffff1673ffffffffffffffffffffffffffffffffffffffff16638e739461856000604051602001526040518263ffffffff167c0100000000000000000000000000000000000000000000000000000000028152600401808260001916600019168152602001915050602060405180830381600087803b151561034057600080fd5b6102c65a03f1151561035157600080fd5b50505060405180519050101561036a5760009050610777565b600260009054906101000a900473ffffffffffffffffffffffffffffffffffffffff1673ffffffffffffffffffffffffffffffffffffffff1663059ef8d7600260009054906101000a900473ffffffffffffffffffffffffffffffffffffffff1673ffffffffffffffffffffffffffffffffffffffff166321f8a721866000604051602001526040518263ffffffff167c0100000000000000000000000000000000000000000000000000000000028152600401808260001916600019168152602001915050602060405180830381600087803b151561044957600080fd5b6102c65a03f1151561045a57600080fd5b505050604051805190508460006040518463ffffffff167c0100000000000000000000000000000000000000000000000000000000028152600401808473ffffffffffffffffffffffffffffffffffffffff1673ffffffffffffffffffffffffffffffffffffffff168152602001838152602001821515151581526020019350505050600060405180830381600087803b15156104f657600080fd5b6102c65a03f1151561050757600080fd5b5050506105138261011e565b600260009054906101000a900473ffffffffffffffffffffffffffffffffffffffff1673ffffffffffffffffffffffffffffffffffffffff166321f8a721846000604051602001526040518263ffffffff167c0100000000000000000000000000000000000000000000000000000000028152600401808260001916600019168152602001915050602060405180830381600087803b15156105b457600080fd5b6102c65a03f115156105c557600080fd5b5050506040518051905073ffffffffffffffffffffffffffffffffffffffff166108fc6105f3600085610271565b9081150290604051600060405180830381858888f19350505050151561061857600080fd5b7fd1ba4ac2e2a11b5101f6cb4d978f514a155b421e8ec396d2d9abaf0bb02917ee33600260009054906101000a900473ffffffffffffffffffffffffffffffffffffffff1673ffffffffffffffffffffffffffffffffffffffff166321f8a721866000604051602001526040518263ffffffff167c0100000000000000000000000000000000000000000000000000000000028152600401808260001916600019168152602001915050602060405180830381600087803b15156106db57600080fd5b6102c65a03f115156106ec57600080fd5b5050506040518051905084604051808473ffffffffffffffffffffffffffffffffffffffff1673ffffffffffffffffffffffffffffffffffffffff1681526020018373ffffffffffffffffffffffffffffffffffffffff1673ffffffffffffffffffffffffffffffffffffffff168152602001828152602001935050505060405180910390a1600190505b92915050565b6000809054906101000a900473ffffffffffffffffffffffffffffffffffffffff1673ffffffffffffffffffffffffffffffffffffffff163373ffffffffffffffffffffffffffffffffffffffff16141561080c576000809054906101000a900473ffffffffffffffffffffffffffffffffffffffff1673ffffffffffffffffffffffffffffffffffffffff16ff5b5600a165627a7a72305820757424853bda5502d19fbf3e04480e966f979b78a3c332c8e610598a3ab582dd0029a165627a7a72305820984453f8c83c625dd1780ba067b260f76cb40450277ce9b130d777fbc1b51b930029",
  "source": "pragma solidity ^0.4.18;\n/* This is a database contract that will create TokenExchange contract \n * it only contains the idenities of each address and their respective class\n*/\ncontract TokenTransaction {\n\n    address owner;\n    bytes32 name;\n    TransactionFactory database;\n    // Log the transfer/action to blockchain \n    event Sold(address buyer, address seller, uint256 enitAmount, uint256 etherAmount);\n    event Brought(address buyer, address seller, uint256 enitAmount, uint256 etherAmount);\n    event Transferred(address _from, address _to, uint256 value);\n    event Deposit(address sender, uint256 buyer);\n\n    uint256 ratioEtherToEnits = 3460;\n\n    /* Purpose: creates the instance \n     * Input: None \n     * Returns: None\n     */\n    function TokenTransaction(bytes32 username) public {\n        owner = msg.sender;\n        name = username;\n        database = TransactionFactory(msg.sender); //factory will always be owner\n    }\n\n    /* Purpose: converts depending on boolean:\n                False = Enits to Ethers \n                True = Ethers to Enits \n     * Input: boolean, uint256\n     * Returns: None\n     */\n    function convertToken(bool toEnit, uint256 initialAmount) public constant returns(uint256 value){\n        if (toEnit) {\n            // Amount * 3460\n            return (initialAmount * ratioEtherToEnits);\n        } else {\n            return (initialAmount / ratioEtherToEnits);\n        }\n    }\n    /* Purpose: deposit money\n     * Input: uint256\n     * returns: bool\n     */\n    // might have an error here \n    function depositEnits(uint256 value) public {\n        database.setBalance(msg.sender, value, true);\n        Deposit(msg.sender, value);\n\n    }\n    /* Purpose: transfers ether to seller and enit to buyer\n     * Input: string_seller, uint256_amount \n     * Returns: bool\n     */\n    function transfer(bytes32 seller, uint256 amount) payable public returns(bool) {\n        \n        // not enough enits to give out\n        if ( database.getBalance(seller) < amount) { \n            return false;\n        }\n        \n        // sending and receiving the enits \n        database.setBalance(database.getAddress(seller), amount, false);\n        depositEnits(amount);\n\n        //payable function \n        database.getAddress(seller).transfer(convertToken(false, amount));\n        Transferred(msg.sender, database.getAddress(seller), amount);\n        return true; \n    }\n\n    /* Purpose: exchange money or a handshake here \n                checks if owner has ethers to use\n     * Input: seller, buyer, amount \n     * Returns: bool\n     */\n    function exchange(bytes32 _seller, uint amount) private returns(bool) {\n        var seller = database.getAddress(_seller);\n\n        uint256 currentCost = convertToken(false, amount);\n\n        if ( msg.sender.balance < currentCost) {\n            return false;\n        }\n\n        transfer(_seller, amount);\n        Brought(msg.sender, seller, amount, currentCost);\n        return true;\n    }\n    /* <function> remove()\n    * Purpose: Makes the contract remove itself from the blockchain.\n    * Parameters: None.\n    * Returns: Nothing\n    */\n    function remove() public {\n        if (msg.sender == owner) {\n            selfdestruct(owner);\n        }\n    }\n}\n\ncontract TransactionFactory {\n\n    struct UserAccount {\n        address userAddress;\n        bytes32 username; \n        uint256 enitBalance;\n        bool registered;\n    }\n\n    address owner;\n    mapping (bytes32 => UserAccount) public Accounts; \n    mapping (address => bytes32) public Names; //kind of inefficient but it is what it is\n    address[] public contracts ; \n    // might create a permission mapping to give user some power like sudo\n    int numberOfUsers = 0;\n\n    event Registered(bytes32 username, address userAddress);\n\n    /* Purpose: Setting the owner \n     * Returns: Nothing, just set who is the boss\n    */\n    function TransactionFactory() public {\n        owner = msg.sender;\n    }\n\n    function getBalance(bytes32 username) public constant returns(uint256) { \n        return (Accounts[username].enitBalance);\n    }\n    function setBalance(address _username, uint256 amount, bool flag) public {\n        bytes32 username = getName(_username);\n        if (flag) {\n            Accounts[username].enitBalance += amount;\n        } else { \n            Accounts[username].enitBalance -= amount;\n        }\n    }\n    function getAddress(bytes32 username) public constant returns(address) { \n        return (Accounts[username].userAddress) ; \n    }\n    function getName(address uAddress) public constant returns(bytes32) { \n        return (Names[uAddress]) ; \n    }\n    /* Purpose: creates a new account within the database\n     * Input: unknownAddress, desiredName\n     * Returns: bool\n     */\n    function register(address uAddress, bytes32 userName) public returns(bool success) {\n        var account = Accounts[userName];\n        Names[uAddress] = userName;\n        account.userAddress = uAddress;\n        account.username = userName;\n        account.enitBalance = 0;\n        account.registered = true;\n        numberOfUsers++;\n        Registered(userName, uAddress);\n        return true; \n    }\n    /* Purpose: checks if user is registered\n     * Input: username \n     * returns: bool\n     */ \n    function isRegistered(bytes32 userName) public constant returns(bool registered) {\n        if (Accounts[userName].registered){\n            return true; \n        } else {\n            return false;\n        }\n    }\n    /* Purpose: creates transaction contract and making the requestor its owner\n     * Input: nothing \n     * returns: contract address \n     */ \n     // this might be wrong, but im assuming if someone else calls this \n     // it would be a different msg.sender from owner\n     \n     //// add an event of that address of the transaction\n    function createTransaction(bytes32 name) public returns(address transAddress) {\n        TokenTransaction t = new TokenTransaction(name); \n        contracts.push(t); // adding to contracts array the address\n        return t; \n    }\n     /* Purpose: ability to remove contract of an address \n      * Input: address of contract \n      * returns: bool\n      */ \n    function removeTransaction(address transAddress) public {\n        TokenTransaction(transAddress).remove();\n    }\n}",
  "sourcePath": "/home/david/Documents/EthereumEnergyMicrotransactions/curProject/contracts/TransactionFactory.sol",
  "compiler": {
    "name": "solc",
    "version": "0.4.18+commit.9cf6e910.Emscripten.clang"
  },
  "schemaVersion": "1.0.1",
  "updatedAt": "2017-12-03T05:09:11.266Z"
}