{
  "contractName": "TransactionFactory",
  "abi": [
    {
      "constant": false,
      "inputs": [
        {
          "name": "_username",
          "type": "address"
        },
        {
          "name": "amount",
          "type": "uint256"
        },
        {
          "name": "flag",
          "type": "bool"
        }
      ],
      "name": "setBalance",
      "outputs": [],
      "payable": false,
      "stateMutability": "nonpayable",
      "type": "function"
    },
    {
      "constant": true,
      "inputs": [
        {
          "name": "",
          "type": "address"
        }
      ],
      "name": "Names",
      "outputs": [
        {
          "name": "",
          "type": "bytes32"
        }
      ],
      "payable": false,
      "stateMutability": "view",
      "type": "function"
    },
    {
      "constant": false,
      "inputs": [
        {
          "name": "uAddress",
          "type": "address"
        },
        {
          "name": "userName",
          "type": "bytes32"
        }
      ],
      "name": "register",
      "outputs": [
        {
          "name": "success",
          "type": "bool"
        }
      ],
      "payable": false,
      "stateMutability": "nonpayable",
      "type": "function"
    },
    {
      "constant": true,
      "inputs": [
        {
          "name": "username",
          "type": "bytes32"
        }
      ],
      "name": "getAddress",
      "outputs": [
        {
          "name": "",
          "type": "address"
        }
      ],
      "payable": false,
      "stateMutability": "view",
      "type": "function"
    },
    {
      "constant": true,
      "inputs": [
        {
          "name": "userName",
          "type": "bytes32"
        },
        {
          "name": "userName",
          "type": "bytes32"
        }
      ],
      "name": "isRegistered",
      "outputs": [
        {
          "name": "registered",
          "type": "bool"
        }
      ],
      "payable": false,
      "stateMutability": "view",
      "type": "function"
    },
    {
      "constant": true,
      "inputs": [
        {
          "name": "uAddress",
          "type": "address"
        }
      ],
      "name": "getName",
      "outputs": [
        {
          "name": "",
          "type": "bytes32"
        }
      ],
      "payable": false,
      "stateMutability": "view",
      "type": "function"
    },
    {
      "constant": true,
      "inputs": [
        {
          "name": "username",
          "type": "bytes32"
        }
      ],
      "name": "getBalance",
      "outputs": [
        {
          "name": "",
          "type": "uint256"
        }
      ],
      "payable": false,
      "stateMutability": "view",
      "type": "function"
    },
    {
      "constant": true,
      "inputs": [
        {
          "name": "",
          "type": "bytes32"
        }
      ],
      "name": "Accounts",
      "outputs": [
        {
          "name": "userAddress",
          "type": "address"
        },
        {
          "name": "username",
          "type": "bytes32"
        },
        {
          "name": "enitBalance",
          "type": "uint256"
        },
        {
          "name": "registered",
          "type": "bool"
        }
      ],
      "payable": false,
      "stateMutability": "view",
      "type": "function"
    },
    {
      "constant": true,
      "inputs": [
        {
          "name": "uAddress",
          "type": "address"
        }
      ],
      "name": "getName",
      "outputs": [
        {
          "name": "",
          "type": "bytes32"
        }
      ],
      "payable": false,
      "stateMutability": "nonpayable",
      "type": "constructor"
    },
    {
      "constant": true,
      "inputs": [
        {
          "name": "username",
          "type": "bytes32",
          "indexed": false
        },
        {
          "indexed": false,
          "name": "userAddress",
          "type": "address"
        }
      ],
      "name": "Registered",
      "outputs": [
        {
          "name": "",
          "type": "uint256"
        }
      ],
      "payable": false,
      "stateMutability": "view",
      "type": "event",
      "anonymous": false
    },
    {
      "constant": true,
      "inputs": [
        {
          "name": "",
          "type": "bytes32"
        }
      ],
      "name": "Accounts",
      "outputs": [
        {
          "name": "userAddress",
          "type": "address"
        },
        {
          "name": "username",
          "type": "bytes32"
        },
        {
          "name": "enitBalance",
          "type": "uint256"
        },
        {
          "name": "registered",
          "type": "bool"
        }
      ],
      "payable": false,
      "stateMutability": "view",
      "type": "function"
    },
    {
      "inputs": [
        {
          "name": "name",
          "type": "bytes32"
        }
      ],
      "payable": false,
      "stateMutability": "view",
      "type": "function",
      "constant": true,
      "name": "getContract",
      "outputs": [
        {
          "name": "",
          "type": "address"
        }
      ]
    },
    {
      "anonymous": false,
      "inputs": [
        {
          "indexed": false,
          "name": "username",
          "type": "bytes32"
        },
        {
          "indexed": false,
          "name": "userAddress",
          "type": "address"
        }
      ],
      "name": "Registered",
      "type": "constructor",
      "payable": false,
      "stateMutability": "nonpayable"
    },
    {
      "anonymous": false,
      "inputs": [
        {
          "indexed": false,
          "name": "username",
          "type": "bytes32"
        },
        {
          "indexed": false,
          "name": "userAddress",
          "type": "address"
        }
      ],
      "name": "Registered",
      "type": "event"
    },
    {
      "anonymous": false,
      "inputs": [
        {
          "indexed": false,
          "name": "_transaction",
          "type": "address"
        },
        {
          "indexed": false,
          "name": "_creator",
          "type": "address"
        }
      ],
      "name": "Action",
      "type": "event"
    }
  ],
  "bytecode": "0x60606040526000600355341561001457600080fd5b336000806101000a81548173ffffffffffffffffffffffffffffffffffffffff021916908373ffffffffffffffffffffffffffffffffffffffff1602179055506106d7806100636000396000f30060606040526004361061008e576000357c0100000000000000000000000000000000000000000000000000000000900463ffffffff168063059ef8d7146100935780631de39af4146100e05780631e7a505f1461013557806321f8a7211461019357806327258b22146101fa5780635fd4b08a146102395780638e7394611461028e57806398ffbcdd146102c9575b600080fd5b341561009e57600080fd5b6100de600480803573ffffffffffffffffffffffffffffffffffffffff169060200190919080359060200190919080351515906020019091905050610351565b005b34156100eb57600080fd5b610117600480803573ffffffffffffffffffffffffffffffffffffffff169060200190919050506103c8565b60405180826000191660001916815260200191505060405180910390f35b341561014057600080fd5b610179600480803573ffffffffffffffffffffffffffffffffffffffff16906020019091908035600019169060200190919050506103e0565b604051808215151515815260200191505060405180910390f35b341561019e57600080fd5b6101b860048080356000191690602001909190505061054f565b604051808273ffffffffffffffffffffffffffffffffffffffff1673ffffffffffffffffffffffffffffffffffffffff16815260200191505060405180910390f35b341561020557600080fd5b61021f600480803560001916906020019091905050610597565b604051808215151515815260200191505060405180910390f35b341561024457600080fd5b610270600480803573ffffffffffffffffffffffffffffffffffffffff169060200190919050506105dd565b60405180826000191660001916815260200191505060405180910390f35b341561029957600080fd5b6102b3600480803560001916906020019091905050610626565b6040518082815260200191505060405180910390f35b34156102d457600080fd5b6102ee60048080356000191690602001909190505061064e565b604051808573ffffffffffffffffffffffffffffffffffffffff1673ffffffffffffffffffffffffffffffffffffffff16815260200184600019166000191681526020018381526020018215151515815260200194505050505060405180910390f35b600061035c846105dd565b905081156103955782600160008360001916600019168152602001908152602001600020600201600082825401925050819055506103c2565b82600160008360001916600019168152602001908152602001600020600201600082825403925050819055505b50505050565b60026020528060005260406000206000915090505481565b600080600160008460001916600019168152602001908152602001600020905082600260008673ffffffffffffffffffffffffffffffffffffffff1673ffffffffffffffffffffffffffffffffffffffff1681526020019081526020016000208160001916905550838160000160006101000a81548173ffffffffffffffffffffffffffffffffffffffff021916908373ffffffffffffffffffffffffffffffffffffffff160217905550828160010181600019169055506000816002018190555060018160030160006101000a81548160ff0219169083151502179055506003600081548092919060010191905055507f7d917fcbc9a29a9705ff9936ffa599500e4fd902e4486bae317414fe967b307c83856040518083600019166000191681526020018273ffffffffffffffffffffffffffffffffffffffff1673ffffffffffffffffffffffffffffffffffffffff1681526020019250505060405180910390a1600191505092915050565b600060016000836000191660001916815260200190815260200160002060000160009054906101000a900473ffffffffffffffffffffffffffffffffffffffff169050919050565b600060016000836000191660001916815260200190815260200160002060030160009054906101000a900460ff16156105d357600190506105d8565b600090505b919050565b6000600260008373ffffffffffffffffffffffffffffffffffffffff1673ffffffffffffffffffffffffffffffffffffffff168152602001908152602001600020549050919050565b6000600160008360001916600019168152602001908152602001600020600201549050919050565b60016020528060005260406000206000915090508060000160009054906101000a900473ffffffffffffffffffffffffffffffffffffffff16908060010154908060020154908060030160009054906101000a900460ff169050845600a165627a7a72305820bf383b972d9871dde56439a848ee8e158f47600abeda9aeda66f3f67f3ccd6470029",
  "source": "pragma solidity ^0.4.18;\n\n/* Alright, 4th change in the entire program, this time the database will only have the mappings \n * and the ability to register users onto the database, however, it will not create new contracts\n */\n\n// the workaround plan for parity is that this database will only hold the mappings\n// and nothing else. The functions will be public so that it can only be called at \n// TokenTransaction and nothing else.\ncontract TransactionFactory {\n\n    struct UserAccount {\n        address userAddress;\n        bytes32 username; \n        uint256 enitBalance;\n        bool registered;\n    }\n\n    address owner;\n    mapping (bytes32 => UserAccount) public Accounts; \n    mapping (address => bytes32) public Names; //kind of inefficient but it is what it is\n    // might create a permission mapping to give user some power like sudo\n    int numberOfUsers = 0;\n\n    event Registered(bytes32 username, address userAddress);\n\n    /* Purpose: Setting the owner \n     * Returns: Nothing, just set who is the boss\n    */\n    function TransactionFactory() public {\n        owner = msg.sender;\n    }\n\n    function getBalance(bytes32 username) public constant returns(uint256) { \n        return (Accounts[username].enitBalance);\n    }\n    function setBalance(address _username, uint256 amount, bool flag) public {\n        bytes32 username = getName(_username);\n        if (flag) {\n            Accounts[username].enitBalance += amount;\n        } else { \n            Accounts[username].enitBalance -= amount;\n        }\n    }\n    function getAddress(bytes32 username) public constant returns(address) { \n        return (Accounts[username].userAddress) ; \n    }\n    function getName(address uAddress) public constant returns(bytes32) { \n        return (Names[uAddress]) ; \n    }\n    /* Purpose: creates a new account within the database\n     * Input: unknownAddress, desiredName\n     * Returns: bool\n     */\n    function register(address uAddress, bytes32 userName) public returns(bool success) {\n        var account = Accounts[userName];\n        Names[uAddress] = userName;\n        account.userAddress = uAddress;\n        account.username = userName;\n        account.enitBalance = 0;\n        account.registered = true;\n        numberOfUsers++;\n        Registered(userName, uAddress);\n        return true; \n    }\n    /* Purpose: checks if user is registered\n     * Input: username \n     * returns: bool\n     */ \n    function isRegistered(bytes32 userName) public constant returns(bool registered) {\n        if (Accounts[userName].registered){\n            return true; \n        } else {\n            return false;\n        }\n    }\n}\n\ncontract TokenTransaction is TransactionFactory {\n\n    address public owner;\n    TransactionFactory database;\n    // Log the transfer/action to blockchain \n    event Sold(address buyer, address seller, uint256 enitAmount, uint256 etherAmount);\n    event Brought(address buyer, address seller, uint256 enitAmount, uint256 etherAmount);\n    event Transferred(address _from, address _to, uint256 value);\n    event Deposit(address sender, uint256 buyer);\n    uint256 ratioEtherToEnits = 3460;\n\n    /* Purpose: creates the instance \n     * Input: None \n     * Returns: None\n     */\n    function TokenTransaction() TransactionFactory() public {\n        owner = msg.sender;\n        database = TransactionFactory(msg.sender); //factory will always be owner\n    }\n\n    /* Purpose: converts depending on boolean:\n                False = Enits to Ethers \n                True = Ethers to Enits \n     * Input: boolean, uint256\n     * Returns: None\n     */\n    function convertToken(bool toEnit, uint256 initialAmount) public constant returns(uint256 value){\n        if (toEnit) {\n            // Amount * 3460\n            return (initialAmount * ratioEtherToEnits);\n        } else {\n            return (initialAmount / ratioEtherToEnits);\n        }\n    }\n    /* Purpose: deposit money\n     * Input: uint256\n     * returns: bool\n     */\n    // might have an error here \n    function depositEnits(bytes32 name, uint256 value) public {\n        database.setBalance(getAddress(name), value, true);\n        Deposit(getAddress(name), value);\n    }\n    /* Purpose: transfers ether to seller and enit to buyer\n     * Input: string_seller, uint256_amount \n     * Returns: bool\n     */\n    function transfer(bytes32 buyer, bytes32 seller, uint256 amount) payable public returns(bool) {\n        // not enough enits to give out\n        if ( database.getBalance(seller) < amount) { \n            return false;\n        }\n        \n        // sending and receiving the enits \n        database.setBalance(database.getAddress(seller), amount, false);\n        depositEnits(seller,amount);\n\n        //payable function \n        database.getAddress(seller).transfer(convertToken(false, amount));\n        Transferred(getAddress(buyer), database.getAddress(seller), amount);\n        return true; \n    }\n\n    /* Purpose: exchange money or a handshake here \n                checks if owner has ethers to use\n     * Input: seller, buyer, amount \n     * Returns: bool\n     */\n    function exchange(bytes32 _buyer, bytes32 _seller, uint amount) public returns(bool) {\n        var seller = database.getAddress(_seller);\n        var buyer = getAddress(_buyer);\n        uint256 currentCost = convertToken(false, amount);\n\n        if ( msg.sender.balance < currentCost) {\n            return false;\n        }\n        transfer(_buyer, _seller, amount) ; \n        Brought(buyer, seller, amount, currentCost);\n        return true;\n    }\n    /* <function> remove()\n    * Purpose: Makes the contract remove itself from the blockchain.\n    * Parameters: None.\n    * Returns: Nothing\n    */\n    function remove() public {\n        if (msg.sender == owner) {\n            selfdestruct(owner);\n        }\n    }\n}\n",
  "sourcePath": "/home/david/Documents/EthereumEnergyMicrotransactions/curProject/contracts/TokenTransaction.sol",
  "compiler": {
    "name": "solc",
    "version": "0.4.18+commit.9cf6e910.Emscripten.clang"
  },
  "schemaVersion": "1.0.1",
  "updatedAt": "2017-12-03T19:27:49.746Z"
}